:10000000021988021A25787AE670037F0322C2A8B3
:1000100053E67FE4FD7F051221E3E4FF1223857F91
:10002000031222097F041222095391FB53917FC2CC
:1000300089788DE670077D027F621221E37F0112CD
:1000400022BFE4FD7F081221E3787AE6543060088D
:1000500076401224997F0322787A76401224997F81
:100060000022D207900060E53CF07C007D607F01BB
:10007000021588021CF4EFC4135403F54AEF54032D
:10008000F54B788DE61470030201FB046003020354
:1000900041E54A75F00EA424F5F582E43424F58395
:1000A000E493FD7F1C1221E3E54A75F00EA424F6CB
:1000B000F582E43424F583E493FD7F201221E3E507
:1000C0004A75F00EA424F7F582E43424F583E49312
:1000D000FD7F211221E3E54A75F00EA424F8F58294
:1000E000E43424F583E493FD7F221221E3E54A758D
:1000F000F00EA424F9F582E43424F583E493FD7F23
:10010000231221E3E54A75F00EA424FAF582E434C3
:1001100024F583E493FD7F241221E3E54A75F00E74
:10012000A424FBF582E43424F583E493FD7F2512B7
:1001300021E3E54A75F00EA424FCF582E43424F5AD
:1001400083E493FD7F6E1221E3E54A75F00EA4244B
:10015000FDF582E43424F583E493FD7F6F1221E3FF
:10016000E54A75F00EA424FEF582E43424F583E418
:1001700093FD7F701221E3E54A75F00EA424FFF58C
:1001800082E43424F583E493FD7F721221E3E54A8F
:1001900075F00EA42401F582E43425F583E493FD83
:1001A0007F1D1221E3E54A75F00EA42402F582E4D6
:1001B0003425F583E493FD7F581221E3E54A75F079
:1001C0000EA424FFF582E43424F583E493F53BE5A3
:1001D0004A75F00EA42400F582E43425F583E493F7
:1001E000F53AE54A75F00BA42473F582E43425F55D
:1001F00083E49333333354F802049BE54A75F00EDD
:10020000A424BDF582E43424F583E493FD7F1C121D
:1002100021E3E54A75F00EA424BEF582E43424F50A
:1002200083E493FD7F201221E3E54A75F00EA424B8
:10023000BFF582E43424F583E493FD7F211221E3AA
:10024000E54A75F00EA424C0F582E43424F583E475
:1002500093FD7F221221E3E54A75F00EA424C1F537
:1002600082E43424F583E493FD7F231221E3E54AFD
:1002700075F00EA424C2F582E43424F583E493FDE2
:100280007F241221E3E54A75F00EA424C3F582E42D
:100290003424F583E493FD7F251221E3E54A75F0CC
:1002A0000EA424C4F582E43424F583E493FD7F6E28
:1002B0001221E3E54A75F00EA424C5F582E4342446
:1002C000F583E493FD7F6F1221E3E54A75F00EA4F8
:1002D00024C6F582E43424F583E493FD7F70122173
:1002E000E3E54A75F00EA424C7F582E43424F583CF
:1002F000E493FD7F721221E3E54A75F00EA424C950
:10030000F582E43424F583E493FD7F1D1221E3E5B7
:100310004A75F00EA424CAF582E43424F583E493EC
:10032000FD7F2A1221E3E54A75F00BA42473F582C0
:10033000E43425F583E49333333354F84402020460
:100340009BE54A75F00FA4242DF582E43425F5834E
:10035000E493FD7F1C1221E3E54A75F00FA4242EDF
:10036000F582E43425F583E493FD7F201221E3E553
:100370004A75F00FA4242FF582E43425F583E49325
:10038000FD7F211221E3E54A75F00FA42430F582A8
:10039000E43425F583E493FD7F221221E3E54A75D9
:1003A000F00FA42431F582E43425F583E493FD7F36
:1003B000231221E3E54A75F00FA42432F582E434D8
:1003C00025F583E493FD7F241221E3E54A75F00FC0
:1003D000A42433F582E43425F583E493FD7F2512CC
:1003E00021E3E54A75F00FA42434F582E43425F5C1
:1003F00083E493FD7F6E1221E3E54A75F00FA42498
:1004000035F582E43425F583E493FD7F6F1221E313
:10041000E54A75F00FA42436F582E43425F583E42B
:1004200093FD7F701221E3E54A75F00FA42437F5A0
:1004300082E43425F583E493FD7F721221E3E54ADB
:1004400075F00FA42439F582E43425F583E493FD97
:100450007F1D1221E3E54A75F00FA4243AF582E4EA
:100460003425F583E493FD7F2A1221E3E54A75F0F4
:100470000FA4243BF582E43425F583E493FD7F1E2D
:100480001221E3E54A75F00BA42473F582E43425C8
:10049000F583E49333333354F84402FD7F3512215E
:1004A000E3E54A75F00BA42469F582E43425F5836D
:1004B000E493FD7F751221E3E54A75F00BA4246AED
:1004C000F582E43425F583E493FD7F761221E3E59C
:1004D0004A75F00BA4246BF582E43425F583E4938C
:1004E000FD7F771221E3E54A75F00BA4246CF582B9
:1004F000E43425F583E493FD7F7A1221E3E54B7024
:100500000FE54A75F00BA4246EF582E4342580359E
:10051000E54BB4010FE54A75F00BA4246FF582E4B6
:1005200034258021E54BB4020FE54A75F00BA42475
:1005300070F582E43425800DE54A75F00BA4247132
:10054000F582E43425F583E49325E0FD7F34122120
:10055000E3228D528B53EF14603814607F147003C4
:100560000208B91470030208ED2404600302091C98
:10057000E55320E60302091C7F8012239EAF32AEB2
:1005800031AD30AC2F12213E787A7621D2A843E6E5
:100590008022E55320E70302091C53E67FE4FF12A3
:1005A000239E7F261223348F3C1224ABE4F533784C
:1005B0006BE620E2077870E65403F528787CA628DD
:1005C0007D037F05122319AF41AE40AD3FAC3E1213
:1005D000213ED2A843E680787A762222E55220E1B5
:1005E000030208621224437F011222547868E63025
:1005F000E2097F4B1223347884A6077868E67F47A8
:1006000030E71D1223347880A6077F481223347800
:1006100081A6077F491223347882A6077F4A801279
:100620001223347880A6077F481223347882A607E5
:100630007F491223347883A6077880E630E3437835
:100640006BE620E73D7F081223348F54435402ADFC
:10065000547F081223195354FDAD547F08122319F7
:100660007F4012239E786BE620E2030208AD122041
:10067000A4AF26AE25AD24AC2312213E43E6800272
:1006800008AD7884E6FF7C007D0012210E121E90DA
:10069000EF60030208547880E620E2030208447801
:1006A00082E6F47003020844788DE67007AD3B7F64
:1006B000721223197F341223348F2A7D087F34125B
:1006C00023197868E61313135403F554E678803041
:1006D000E727E654FB44084554FD7F3A1223197876
:1006E00081E6FD7F3B122319787FE6FD7F3C1223D4
:1006F000197882E6FD7F3D801CE654FB4408455492
:10070000FD7F3A122319787FE6FD7F3B122319788B
:1007100082E6FD7F3C1223197F081223348F544355
:100720005401AD547F081223195354FEAD547F0871
:100730001223197868E630E24B753D01AD3D7F3EEE
:10074000122319E4F554E554C3953D501174402526
:1007500054F582E43400F583E4F0055480E8120097
:1007600062E4F554E554C3953D4003020823744008
:100770002554F582E43400F583E0FD7F7F122319D0
:10078000055480E07884E6FD7F3E1223197884E6E4
:10079000D39410404EE4F55474402554F582E4346B
:1007A00000F583E4F00554E554B410EC120062E463
:1007B000F55474402554F582E43400F583E0FD7F60
:1007C0007F1223190554E554C3941040E575541065
:1007D000E554C3788496504BE4FD7F7F12231905BE
:1007E0005480EDE4F554E554C37884965011744078
:1007F0002554F582E43400F583E4F0055480E712D3
:100800000062E4F554E554C378849650167440258C
:1008100054F582E43400F583E0FD7F7F122319054F
:100820005480E27D047F05122319AF45AE44AD43E9
:10083000AC4212213ED2A843E6807F0912225478AE
:100840007A762322787DA63C787BA633AF3C1224AF
:100850007F0208DC7F021222E1787BA6331224AEED
:10086000807AE55220E00302091C7F011222E17820
:100870007BA6331224BA7F081223348F54435402C8
:10088000AD547F081223195354FDAD547F08122331
:10089000197F4012239E786BE630E2111220A4AF3C
:1008A00026AE25AD24AC2312213E43E6807F0512FF
:1008B0002254787A7620D2A822E55230E223E4FD51
:1008C0007F0512231953E67F787DA63C787BA633FB
:1008D000AF3C12247FAD2A7F34122319E4FF021AA1
:1008E000C2E55320E336787A76240224A2C2A853C4
:1008F000E67FE4FD7F05122319E4FF12239E7F03A8
:100900001223347F041223345391FB53917FC28905
:10091000788DE670077D027F62122319228F468D43
:1009200047E546D3942440037F0122787AE6543089
:1009300060037F0322E546B426004003020C2D909D
:100940000946F82828730209B8020C2D020A490248
:100950000A80020A8E020A8E020A8E020A8E020A99
:10096000B3020C2D020C2D020C2D020C2D020C2DAD
:10097000020C2D020C2D020C2D020AC0020AD60216
:100980000AD9020ADC020ADF020AE2020AF2020BB8
:100990000C020B0F020B12020B15020B27020B3875
:1009A000020C2D020B40020B47020B4E020BA90258
:1009B0000BF7020C1B020C1EE54730E7047D42805A
:1009C000027D327F331221E3AF471200767879E659
:1009D000FDAF47121355E5475460C4135407F5485B
:1009E00075F00BA4246DF582E43425F583E493FEC1
:1009F000786CE6C39E4002802B786DE6C39E400271
:100A00008022E54875F00BA4246DF582E43425F5C9
:100A100083E493FE786EE6C39E40028007786FE61B
:100A2000C39E4005E4F67F08227885E6FF121E4249
:100A3000E54730E203020C2D7F331222098F48E58F
:100A4000484408FD7F33020C16E547C4540FF548AF
:100A5000788DE67007AD487F6D020C16788DE6B490
:100A6000010AE5484408FD7F6D020C16788DE664A6
:100A7000026003020C2DE5484418FD7F6D020C1640
:100A8000E547547864786003020C2D7F0222786871
:100A9000E6C4135403F54875F00BA4246DF582E405
:100AA0003425F583E493FFE547C39F5003020C2DE3
:100AB0007F0222E547C394045003020C2D7F0222DB
:100AC000E547D3944040037F02227868E6FFAD47B4
:100AD000121355020C2D7F01227F01227F01227FFC
:100AE00001227868E630E707AD477F3A020C167FAF
:100AF0000122E547B4FF037F02227868E6AD473064
:100B0000E7057F3B020C167F3A020C167F01227F1D
:100B100001227F01227868E6AD4730E7057F3C027D
:100B20000C167F3B020C16E547D3944040037F022E
:100B300022AD477F3E020C16AF47121E42020C2D1B
:100B4000AD477F16020C16AD477F15020C16E54720
:100B5000543FFD7F141221E37F061222098F487F44
:100B6000071222098F488F49E54730E708434808B4
:100B700043492080065348F75349DFAD487F0612AA
:100B800021E3AD497F071221E37F071222098F4835
:100B9000E54730E6055348EF8003434810AD487FF2
:100BA000071221E3D2A8020C2DE54730E728541F95
:100BB000F548FD7F1A1221E37F061222098F48E5CE
:100BC000484404FD7F061221E37F071222098F4863
:100BD000E5484440801C7F061222098F48E54854AE
:100BE000FBFD7F061221E37F071222098F48E548AB
:100BF00054BFFD7F07801FE54754FCFD7F0F122186
:100C0000E3E4FD7F101221E3E5475403C43333547A
:100C1000C04420FD7F121221E380127F0122E547AC
:100C2000D3940240037F0222AF47121DEA74682565
:100C300046F8A6477F0022EF14603C147003020DB3
:100C400026147003020D8A147003020D9124FE70A5
:100C500003020DB924066003020DE8E5277009F5CB
:100C6000107FE37E23020D01E4F527751001F511D5
:100C70007FF97E07020D01E510703EE52770030243
:100C80000D2AE4F5271223E6E4FCFDFEAB2EAA2D87
:100C9000A92CA82B121500EF24E0F560EE3427F5FF
:100CA0005FE43DF55EE43CF55DAF60AE5FAD5EFCDC
:100CB00012216A787A76128051E52770341223E681
:100CC000E4FCFDFEAB2EAA2DA92CA82B121500EFDB
:100CD00024E0F560EE3427F55FE43DF55EE43CF595
:100CE0005DAF60AE5FAD5EFC12216A787A761280ED
:100CF0005EE511C39409501EE4F52705117FF97EC6
:100D000007FDFC12216A787A76117F011222787F22
:100D1000051222788039E4F5270534E534C39402BE
:100D20007F015057803BE52770297F01122278E42C
:100D3000FF1223B77D047F0512234F7F091222780B
:100D4000AF45AE44AD43AC4212216A787A76134384
:100D5000E68022E4F5270534E534C394027F015090
:100D60001A1222787FFC7E037D007C0012216A78B3
:100D70007A761043E6807F05022278122278787A0C
:100D800076157F081222FD0224B4787A76160224A2
:100D9000A2C2A853E67FE4FD7F0512234FE4FF12B1
:100DA00023B77F0312236A7F0412236A7F01122272
:100DB000781224B77F01021B56C2A853E67FE4FDD8
:100DC0007F0512234FE4FF1223B77F0312236A7FAC
:100DD0000412236A5391FB53917FC289788DE67088
:100DE000077D027F6212234F22300C17C20C1200C3
:100DF000063006FDC2067D447F2112091D90005C6D
:100E00007412F090005CE024ED603614606324FC02
:100E10007003020EE1147003020EF0147003020F4F
:100E20002124086003020F651200063006FDC20689
:100E3000D2A01217663001FDC20190005C7413F05D
:100E400022201003020F65C2107E007F5F7C007DB0
:100E5000561220DB900056E064336003020F657B7E
:100E6000017A0079557F1A121D7090005C7414F09D
:100E7000221200063006FDC2067D667F1F12091D84
:100E8000E4FD7F2012091D7DC47F2112091D7D789C
:100E90007F0212091D900055E0FD7F1B12091D9075
:100EA00000567444F07C007D567F01121C71900046
:100EB0005EE075F00A84AFF07E007C087DDC1214E1
:100EC0009912222F1212232006033005FA3006024F
:100ED000C206300505C20502000690005C7418F0D9
:100EE000221217663001FDC20190005C7419F022D5
:100EF000301072C2107E007F5F7C007D561220DBB6
:100F0000900056E06445705D1200063006FDC20692
:100F1000900058E0FD7F1712091D90005C741AF0D4
:100F2000227D707F0212091D900055E0FD7F1B128B
:100F3000091D9000567446F090005EE0900058F055
:100F40007C007D567F03121C711212233006FDC2F5
:100F5000067D447F2112091D7DA07F0D12091D9081
:100F6000005C7422F0228D528B53EF14601A1460CF
:100F70001714602014700302101D24FE7003021069
:100F80009E240660030210CDE55320E4030210CD39
:100F900075270122E55220E2030210CD786AE6307F
:100FA000E22C7868E65403FFE528C39F502005280B
:100FB000746C2528F8E6FD7F791223197F09122227
:100FC00054AF45AE44AD43AC4212213E803AE553A6
:100FD00020E33B786AE6548464807032788DE67052
:100FE00007AD3A7F721223197D037F05122319E49E
:100FF000FF12239E7F05122254AF39AE38AD37ACB5
:101000003612213E787A7614D2A843E6802253E63F
:101010007F1224B1E4FD7F05122319805C7868E615
:1010200030E7047F4A80027F491223348F54E5520F
:1010300030E13CE554787F6670357F471223348F6A
:1010400054E55430E338E4FD7F0512231953E67F5D
:101050007868E630E2097F4B1223347884A607785B
:1010600084E6FF7C007D0012210E1224B1800AE587
:101070005230E00A7F011222E17F01021AC27F088A
:101080001223348F54435402AD547F081223195352
:1010900054FDAD547F081223197F05022254C2A8C3
:1010A00053E67FE4FD7F05122319E4FF12239E7FA0
:1010B000031223347F041223345391FB53917FC2D4
:1010C00089788DE670077D027F6212231922C2A8FB
:1010D00053E67FE4F54674682546F8E4F60546E5F0
:1010E00046B424F27868761C08765008763808767C
:1010F00004786D76010876020876037875760278B2
:10110000797640E408F6787E76CD087601788476A4
:10111000017886767818768A788A76141876407FF1
:10112000031222097F04122209C289E4FD7F0512FD
:1011300021E37D027F061221E3787A7680122493E0
:101140007D817F071221E37FF67E0B7D007C0012FC
:101150001F25D2A843E680787AE6B440FAE4FD7F02
:10116000051221E3E4FD7F061221E37868E67F3073
:1011700030E7027F40EF4402FD7F331221E3E4FDBC
:101180007F321221E37D2D7F361221E37DD47F371C
:101190001221E37868E6FF1200767D127F0B1221A0
:1011A000E37D147F0C1221E37D0F7F0D1221E37D7F
:1011B0008D7F301221E37D637F711221E3E4FD7F97
:1011C000511221E37D0B7F501221E37F011222098E
:1011D0008F46E546B40206E4788DF6801DE546B4F8
:1011E0000406788D76018012E546B40606788D7681
:1011F000028007788D7602754601788DE6FF121D14
:10120000EA788DE670077D247F621221E3E4FD7F9A
:10121000071221E3E4787AF6122496E5467F0970F6
:1012200001FF22787AE6644060037F0322C2A8535C
:10123000E67F788DE6700E7D247F621221E3AD3B60
:101240007F721221E3786AE630E20E786CE6FD7F69
:10125000791221E3E4F528801C7870E6F546D394F2
:10126000034003E4F546746C2546F8E6FD7F7912E9
:1012700021E38546287868E61313135403F546786E
:101280006AE630E703434604E529C3940F5004059A
:10129000298003E4F529E529C454F042467868E63C
:1012A000AD467F3A30E71D1221E3787EE6FD7F3BB5
:1012B0001221E3787FE6FD7F3C1221E37883E6FD8F
:1012C0007F3D80121221E3787FE6FD7F3B1221E310
:1012D0007883E6FD7F3C1221E3786AE630E341E65D
:1012E00020E23D7886E6FD7F271221E37F0312226C
:1012F000097F04122209E4FD7F051221E37F101209
:101300002385E4F534F527787A761012249F7FFC44
:101310007E037D007C00121F257F051222BF802DD9
:101320007D047F051221E3E4FF1223857F0312224F
:10133000097F041222097F091222BFAF45AE44ADD6
:1013400043AC42121F25787A761312249FD2A84309
:10135000E6807F00228D4AAB07EBC4135407754B20
:10136000005403F54C25E0FFE54B33FE74C72FF521
:101370008274253EF583E493F54F740193F550E5AF
:101380004C75F00BA4246EF582E43425F583EB5400
:10139000032582F582E43583F583E493F54DEB3044
:1013A000E705754E048003754E03EB30E202054EEF
:1013B000AE4FAF50E54D2402FDE433FC12155B8FB8
:1013C000328E318D308C2F90257275F00BE54C12DA
:1013D000154FE54B75F00BA42583F583E493FF7E51
:1013E00000AC4FAD50121499E48F268E25F524F5EC
:1013F00023E54E254AFFE433CF2405F54CE43FF5C1
:101400004BAE4FAF50FCAD4C12155B8F418E408DF3
:101410003F8C3EE54D254EFFE433FE7C00EF254A30
:10142000FFEC3ECF240CF54CE43FF54BAE4FAF50F4
:10143000FCAD4C12155B8F458E448D438C42EB30D6
:10144000E203754A10E54D254EFFE433FE7C00EFC4
:10145000254AFFEC3ECF2407F54CE43FF54BAE4F59
:10146000AF50FCAD4C12155B8F398E388D378C36F2
:10147000E5392478F539E5383429F538E43537F598
:1014800037E43536F53622BB010689828A83F0229D
:101490005002F722BBFE01F322EF8DF0A4A8F0CF9B
:1014A0008CF0A428CE8DF0A42EFE22BC000BBE0032
:1014B00029EF8DF084FFADF022E4CCF875F008EF51
:1014C0002FFFEE33FEEC33FCEE9DEC984005FCEE76
:1014D0009DFE0FD5F0E9E4CEFD22EDF8F5F0EE84A7
:1014E00020D21CFEADF075F008EF2FFFED33FD406C
:1014F00007985006D5F0F222C398FD0FD5F0EA22E6
:10150000E88FF0A4CC8BF0A42CFCE98EF0A42CFC8A
:101510008AF0EDA42CFCEA8EF0A4CDA8F08BF0A408
:101520002DCC3825F0FDE98FF0A42CCD35F0FCEB67
:101530008EF0A4FEA9F0EB8FF0A4CFC5F02ECD392C
:10154000FEE43CFCEAA42DCE35F0FDE43CFC22A4F4
:101550002582F582E5F03583F58322EC8EF0A4CC6C
:10156000C5F0CCCDF8EFA4CEC5F02DFDE43CFCE8F1
:10157000A42EC8C5F03DFDE43CFCEFA4FFE5F02837
:10158000FEE43DFDE43CFC228F558C568D57787A65
:10159000E620E5037F0322E555D3941040037F0244
:1015A000227868E630E22DAD557F3E1221E3E4FF5C
:1015B000EFC395554003021681E5572FF582E435B8
:1015C00056F583E0FE74402FF582E43400F583EE97
:1015D000F00F80DC7884E6D39410403AE4FFEFC348
:1015E0009555501BE5572FF582E43556F583E0FEFF
:1015F00074402FF582E43400F583EEF00F80DFAF06
:1016000055EFC39410507A74402FF582E43400F5FE
:1016100083E4F00F80EBE555C3788496503DE4FFFA
:10162000EFC39555501BE5572FF582E43556F583EA
:10163000E0FE74402FF582E43400F583EEF00F8075
:10164000DFAF557884E6FEEFC39E503574402FF52A
:1016500082E43400F583E4F00F80E8E4FF7884E668
:10166000FEEFC39E501BE5572FF582E43556F583F8
:10167000E0FE74402FF582E43400F583EEF00F8035
:10168000DC7F002290005CE024DD604A1460692465
:101690000260030217657D807F2312091D7FDC7EB7
:1016A0000812222F7B017A0079517F24121D70E4E9
:1016B000FD7F2312091D7B017A0079527F22121DC2
:1016C00070900052E060EF1217663001FDC2019089
:1016D000005C7423F022201003021765C2107E0004
:1016E0007F5F7C007D561220DB900056E0645570D1
:1016F0007490005C7424F0221200063006FDC206CD
:101700007D707F0212091D900055E0FD7F1B1209BC
:101710001D9000567456F0900051E0900057F090E4
:101720000052E0900058F0900053E0900059F07C97
:10173000007D567F04121C711212233006FDC20672
:1017400012206C3004FDC2047D547F1F12091D7DE0
:10175000D37F2012091D7DC47F2112091DC2A090D4
:10176000005C7430F022787AE6644060037F0322E4
:10177000C2A853E67F788DE6700E7D247F62122129
:10178000E3AD3A7F721221E3786BE620E21E7870B7
:10179000E6F546D394034003E4F546746C2546F819
:1017A000E6FD7F791221E3854628802C786BE620C0
:1017B000E30308801C786BE620E404786D801278DF
:1017C0006BE620E504786E8008786BE620E6097801
:1017D0006FE6FD7F791221E3E4FD7F051221E37FAF
:1017E000401223857F031222097F041222097F08F9
:1017F0001222098F46434602AD467F081221E35369
:1018000046FDAD467F081221E37F051222BFAF26B9
:10181000AE25AD24AC23121F25787A762012249CA5
:10182000D2A843E6807F0022EF146045146025149F
:10183000607114607C240460030218E0786BE63069
:10184000E203121FF2AF26AE25AD24AC2312216AAB
:1018500043E680227868E630E20E7F3312236AADD9
:10186000075305F77F3380067884E6FD7F3E122319
:101870004F7F01122278E4FD7F0512234F7F401233
:1018800023B7786BE630E203121FF2AF26AE25AD28
:1018900024AC2312216A43E6807F05122278787AED
:1018A000762022AD2A7F3412234F787A76240224C0
:1018B000A2C2A853E67FE4FD7F0512234FE4FF1286
:1018C00023B77F0312236A7F0412236A5391FB53C9
:1018D000917FC289788DE670077D027F6212234F67
:1018E0002290005CE024FE6066046003021987D247
:1018F000AF1210CE3004FDC203C2047DACE4FF126F
:10190000091D7D607F0112091DE4FD7F0312091D81
:10191000E4FD7F0412091D7D707F0212091D7D8088
:101920007F2212091D7D917F0D12091D7DCD7F162D
:1019300012091D7DFE7F1012091DE4900050F0A3D6
:1019400074FFF0E4A3F0A3F090005C7402F0229026
:10195000005BE004F0700690005AE004F020872756
:101960003087FD90005D74CDF01223FC90005EEF97
:10197000F0FD7F1712091D121EDC3006FDC203C2E6
:101980000690005C7412F02275D900787FE4F6D8D6
:10199000FD9000007F007E10E4F0A3DFFCDEFA750E
:1019A000818D0219E0022477E493A3F8E493A34025
:1019B00003F68001F208DFF48029E493A3F85407CA
:1019C000240CC8C333C4540F4420C8834004F456C5
:1019D000800146F6DFE4800B0102040810204080FD
:1019E00090229CE47E019360BCA3FF543F30E50944
:1019F000541FFEE493A360010ECF54C025E060A8FD
:101A000040B8E493A3FAE493A3F8E493A3C8C5828F
:101A1000C8CAC583CAF0A3C8C582C8CAC583CADFFD
:101A2000E9DEE780BEC0E0C0F0C083C082C0D075F0
:101A3000D000C000C001C002C003C004C005C00681
:101A4000C007C2897F031223348F0E7F0412233410
:101A50008F0FE50E7006E50F54F36037787AE65481
:101A60000FF551E6B48007AF0F121FAF8025787ACB
:101A7000E630E40BAB0FAD0EAF51120F6680147859
:101A80007AE630E50BAB0FAD0EAF51120552800375
:101A9000122443E50F30E3051224A5D2A8E50F3048
:101AA000E2051224A8D2A8D007D006D005D004D0D1
:101AB00003D002D001D000D0D0D082D083D0F0D0DB
:101AC000E0328F55122443788DE67007AD3A7F726D
:101AD000122319E55578696006E6C413138002E6FF
:101AE000C45403F556E556700BFF122254E4787A7D
:101AF000F6022496E556640270437F081223348F61
:101B000057435702AD577F081223195357FDAD575E
:101B10007F081223197F4012239E786BE630E21172
:101B20001220A4AF26AE25AD24AC2312213E43E6FD
:101B3000807F05122254787A7620D2A8227F011263
:101B40002254788DE670077D027F62122319787A1D
:101B50007640122499228F61122452788DE6700704
:101B6000AD3A7F7212234FE56178696006E6C413CF
:101B7000138002E6C45403F562E562700BFF122283
:101B800078E4787AF6022496E562640270437F086E
:101B900012236A8F63436302AD637F0812234F539E
:101BA00063FDAD637F0812234F7F401223B7786B2C
:101BB000E630E211121FF2AF26AE25AD24AC23129F
:101BC000216A43E6807F05122278787A7620D2A8AF
:101BD000227F01122278788DE670077D027F6212E3
:101BE000234F787A7640122499227875E630E621E0
:101BF0007868E630E7047F4980027F481223348FFB
:101C000055E555787756FF7976E7566F60037F0183
:101C1000227875E630E5577868E630E7047F4A8039
:101C2000027F491223348F56E556787F667005434C
:101C30003380FF227875E630E30BE556B4FF0643A8
:101C400033207F00227875E630E420E630E00CE5B2
:101C5000567878667015433340FF22797FE77878AD
:101C600056FFE55656B507037F00227F01227F000D
:101C7000228F468C478D48787AE6543060037F0384
:101C800022E546D3944040037F02227F08122209B6
:101C90008F49434901AD497F081221E35349FEAD05
:101CA000497F081221E37868E630E213AD467F3EB3
:101CB0001221E37884A646AD48AC47AF46802FE5B5
:101CC00046C3788496501FAD48AC47AF46122033C8
:101CD000854649E549C37884965016E4FD7F7F1216
:101CE00021E3054980ED7884E6FFAD48AC4712203A
:101CF000337F0022C0E0C0F0C083C082C0D075D066
:101D000000C000C001C002C003C004C005C006C0BE
:101D100007E50D450C703353E67F5391FB53917FDC
:101D2000787AE6540FF55CE6B480051224618025CC
:101D3000787AE630E407AF5C120C378018787AE6E0
:101D400030E512AF5C121828800B53917FE50D151A
:101D50000D7002150CD007D006D005D004D003D0EA
:101D600002D001D000D0D0D082D083D0F0D0E032E9
:101D70008F468B478A488949E546D3942440037FA0
:101D80000122E546641F600BE54664206005E546D8
:101D9000B421037F0122E546B4150F787AE630E5D9
:101DA000097F26122209787DA607E546B424097F1B
:101DB00011122209788CA607E5466422701A788AE7
:101DC000E630E710E65480F67F1B122209788AE697
:101DD0004FF68004E4788AF674682546F8E6AB4747
:101DE000AA48A9491214877F0022EF1460250470C5
:101DF000427D037F1F1221E37D7F7F5A1221E37D05
:101E0000407F591221E37D0B7F6A1221E37D047F1D
:101E10006880197D017F5A1221E3E4FD7F59122168
:101E2000E37D017F571221E37DC17F561221E37DBF
:101E3000DD80097D607F691221E37D6D7F091221BC
:101E4000E3228F4AE54A30E708E4752ECCF52D8071
:101E50001E7868E6C413540325E024C7F582E434F1
:101E600025F583E493FE740193FFE48F2E8E2DF508
:101E70002CF52BAB2EAA2DA92CA82BE54A547FFFBD
:101E8000E4FCFDFE1215008F2E8E2D8D2C8C2B2246
:101E90007875E630E1037F00227868E630E7157850
:101EA00075E630E70F7F48122334787EE66F6004D2
:101EB0007F048008121BEAEF60087F021222E17F94
:101EC00001227875E630E2117F4B1223347879E6EF
:101ED000FEEFD39E40037F01227F0022787AE670D6
:101EE00041C2A853E67FFD7F051221E37F02122342
:101EF000857F031222097F04122209C2897F011201
:101F000022BF7FF67E0B7D007C00121F25787A763B
:101F100080122493D2A843E680787AE6B440FA7F10
:101F200000227F03228F4A8E498D488C47A2A8E465
:101F300033FBC2A853E67F5391FBAE49AD48AC4793
:101F4000854A4E8E4D8D4C8C4B854B0C854C0DC36C
:101F5000E4954EF54EE4954DF54D854E94854D95A1
:101F600053917F439104EB42A82275A91443D440B6
:101F700043A41043E10143E24043A50143A50443C8
:101F8000D50843A50843D54043A54043D60143A601
:101F90000143D40243A40243D48075A70F75A41251
:101FA00075A54D75A601E4F5A743E340C281228FD4
:101FB00052E55230E10A122443787A76400224999D
:101FC000E55230E022E4FD7F051223197F0212233F
:101FD0009E7F011222547FF67E0B7D007C00122131
:101FE0003ED2A843E68022122443787A768F1224C8
:101FF000A2228528647F08AE64EFA806088002C389
:1020000033D8FCFF0564536403EF25E0FFBF800273
:102010007F08786BE65F6F60EB7F01122278746C4B
:102020002564F8E6FD7F7912234F7F05122278851B
:10203000642822E5A85403FE53A8FCC293C2B775D6
:1020400086FFAB071FEB601430B1FD0DEDAA0470E5
:10205000010C14F5828A83E0F58680E630B1FDE557
:102060008420E7FBC2B7D293EE42A822787AE664D6
:1020700040702EC2A853E67F788DE670077D247FDE
:10208000621221E3E4FD7F051221E3E4FF122385C0
:10209000E4FF1222BFE4787AF6122496D2A87F00D9
:1020A000227F03228528587F08AE58EFA8060880B3
:1020B00002C333D8FCFF0558535803EF25E0FFBF98
:1020C00080027F08786BE65F6F60EB746C2558F8D0
:1020D000E6FD7F79122319855828228F828E83E4AA
:1020E000FF7884E6F07884E6FEEFC39E501D74000E
:1020F0002FF582E43400F583E0FE0DEDAA047001B3
:102100000C14F5828A83EEF00F80DA7F0022C293EE
:10211000C2B775867F30B7FDE586AE071FEE601942
:10212000C2B7E4F58630B7FD0DEDAA0470010C14BA
:10213000F5828A83E586F080E1C2B7D2932253E626
:102140007F5391FB8F5B8E5A8D598C5885580C8527
:10215000590DC3E4955BF55BE4955AF55A855B949C
:10216000855A9553917F4391042253E67F5391FB07
:102170008F678E668D658C6485640C85650DC3E400
:102180009567F567E49566F566856794856695536A
:10219000917F4391042290005CE024D0701E300CAB
:1021A0001BC20C121EDC3006FDC203C2067D447F3A
:1021B0002112091DD2A090005C7422F02290005CD4
:1021C000E054F024F0601224F0601124F060102438
:1021D00030700F1224100218E1020DE90216841269
:1021E000219622E5A85403FE53A8FCC293C2B7EF80
:1021F0004480F58630B1FD8D8630B1FDE58420E761
:10220000FBC2B7D293EE42A822E5A85403FE53A81E
:10221000FCC293C2B78F8630B1FDE4F58630B1FDC4
:10222000E58420E7FBAF86C2B7D293EE42A822C373
:1022300074FF9FF54774FF9EF546E4F5C8538ECFB3
:102240008546CD8547CCC2AD43C804E5C830E7FB21
:1022500053C8FB22AD077889E630E705430520D255
:10226000A87889E620E603430510788AE630E7037C
:102270004305407F07022319AD077889E630E7055B
:10228000430520D2A87889E620E603430510788A22
:10229000E630E7034305407F0702234FC103C10433
:1022A000C106C101C102C108C10CC100C10BC10AF4
:1022B000C109C110C10DC10EC105C10FC10700ADDB
:1022C000077889E630E7034305207889E620E603AE
:1022D000430510788AE630E7034305407F07022173
:1022E000E353070F7869E65FB5071174712528F885
:1022F000E6C394FF500674712528F8062253070F91
:102300007869E65FB5071174712528F8E6C394FF74
:10231000500674712528F80622C293C2B7EF448094
:10232000F58630B1FD8D8630B1FDE58420E7FBC236
:10233000B7D29322C293C2B78F8630B1FDE4F5863F
:1023400030B1FDE58420E7FBAF86C2B7D29322C24D
:1023500093C2B7EF4480F58630B1FD8D8630B1FD74
:10236000E58420E7FBC2B7D29322C293C2B78F861F
:1023700030B1FDE4F58630B1FDE58420E7FBAF86A2
:10238000C2B7D29322AD077889E630E70343050848
:10239000788AE630E7034305047F060221E3AD07B0
:1023A0007889E630E703430508788AE630E7034397
:1023B00005047F06022319AD077889E630E7034359
:1023C0000508788AE630E7034305047F0602234FB9
:1023D000538E3F5391FE7593007592628593958558
:1023E000929475910422E53575F0F5A4F53524FB3A
:1023F000F535C4540FFF70037F01222290005AE08C
:10240000FEA3E0FF7C007D351214ABED24C9FF2252
:10241000121F6A1224221224341223D0122487029B
:10242000248E43B280E4F5A975B64075E501E5A9AF
:1024300030E7FB22758440E4F5B075850143B001B7
:10244000D2932253E67FE4FD7F05122319E4FF02B5
:10245000239E53E67FE4FD7F0512234FE4FF022312
:10246000B7C2A853E67F787A768F0224A253D9BFE9
:1024700090005C7401F02212246D1221BD80FB904B
:102480000053EFF0D2102275E4065388FC22C2A05C
:10249000C29622D20322D20422D20622D20122D212
:1024A0000222D20822D20C22D20022D20B22D2093E
:1024B00022D20E22D20522D20F22D20A221D416040
:1024C0002752000413A9203D3D40211EC800A3D778
:1024D000002B51EC2040404021055001999A0335D2
:1024E0000CCD0028284028835E015D8602BB20C5F4
:1024F00000666640501D41602752000413A9203D2C
:102500001E00801ED0009D4900294EA5203D1E00C2
:1025100080055001999A03350CCD00282300808353
:102520005E015D8602BB20C500665000C01C416094
:102530002752000413A9243D3D401A0A1DD0009DD6
:102540004900294EA5243D3D401E0A055001999A97
:1025500003350CCD04282840280A835E015D8602DD
:10256000BB20C504666640500A752580303C040ACD
:102570000D100305752580303C040A0D1003057508
:1025800025804E25040E13180505752580641D044D
:102590001219200705000102030405060708090AAD
:1025A0000B0C0D0E0F101112131415161718191A03
:1025B0001B1C1D1E1F202122232425262728292AF3
:0F25C0002B2C2D2E2F30311A9506A50146007FAA
:00000001FF
