:100000000215F30216907878E670037F0322C2A8E7
:1000100053E67FE4FD7F05121DC5E4FF121F4B7FF1
:1000200003121DEB7F04121DEB5391FB53917FC212
:10003000897F01121EA1E4FD7F08121DC57878E6B4
:1000400054306008764012207F7F03227878764013
:1000500012207F7F002253070F7867E65FB50711F4
:10006000746F254AF8E6C394FF5006746F254AF86A
:02007000062266
:100073000218B28D2F8B30EF14603814607F147028
:10008300030203D114700302040524046003020471
:1000930034E53020E6030204347F80121F64AF543A
:1000A300AE53AD52AC51121D2078787621D2A843BD
:1000B300E68022E53020E70302043453E67FE4FFC1
:1000C300121F647F26121EFA8F5C122091E4F555ED
:1000D3007869E620E207786EE65403F54A787AA653
:1000E3004A7D037F05121EDFAF61AE60AD5FAC5E7C
:1000F300121D20D2A843E6807878762222E52F20AD
:10010300E10302037A1220297F01121E367866E684
:1001130030E2097F4B121EFA7882A6077866E67FE3
:100123004730E71D121EFA787EA6077F48121EFA93
:10013300787FA6077F49121EFA7880A6077F4A8038
:1001430012121EFA787EA6077F48121EFA7880A63E
:10015300077F49121EFA7881A607787EE630E343CB
:100163007869E620E73D7F08121EFA8F314331029A
:10017300AD317F08121EDF5331FDAD317F08121EF2
:10018300DF7F40121F647869E620E2030203C51291
:100193001C86AF48AE47AD46AC45121D2043E680F2
:1001A3000203C57882E6FF7C007D00121CF0121A60
:1001B30072EF600302036C787EE620E20302035CC5
:1001C3007880E6F4700302035C7F34121EFA8F4CCE
:1001D3007D087F34121EDF7866E61313135403F58C
:1001E30031E6787E30E727E654FB44084531FD7F4E
:1001F3003A121EDF787FE6FD7F3B121EDF787DE635
:10020300FD7F3C121EDF7880E6FD7F3D801CE654B7
:10021300FB44084531FD7F3A121EDF787DE6FD7F02
:100223003B121EDF7880E6FD7F3C121EDF7F081243
:100233001EFA8F31433101AD317F08121EDF533176
:10024300FEAD317F08121EDF7866E630E24B755D46
:1002530001AD5D7F3E121EDFE4F531E531C3955DEF
:10026300501174402531F582E43400F583E4F00540
:100273003180E8121FFAE4F531E531C3955D40039F
:1002830002033B74402531F582E43400F583E0FD3D
:100293007F7F121EDF053180E07882E6FD7F3E120C
:1002A3001EDF7882E6D39410404EE4F53174402586
:1002B30031F582E43400F583E4F00531E531B4101F
:1002C300EC121FFAE4F53174402531F582E4340071
:1002D300F583E0FD7F7F121EDF0531E531C3941006
:1002E30040E5753110E531C3788296504BE4FD7FCC
:1002F3007F121EDF053180EDE4F531E531C37882ED
:1003030096501174402531F582E43400F583E4F00E
:10031300053180E7121FFAE4F531E531C37882969F
:10032300501674402531F582E43400F583E0FD7FF7
:100333007F121EDF053180E27D047F05121EDFAFD1
:1003430065AE64AD63AC62121D20D2A843E6807F24
:1003530009121E367878762322787BA65C7879A6F4
:1003630055AF5C1220650203F47F021200567879C0
:10037300A655122094807AE52F20E0030204347FEF
:10038300011200567879A6551220A07F08121EFA92
:100393008F31433102AD317F08121EDF5331FDAD82
:1003A300317F08121EDF7F40121F647869E630E256
:1003B30011121C86AF48AE47AD46AC45121D204313
:1003C300E6807F05121E3678787620D2A822E52FA4
:1003D30030E223E4FD7F05121EDF53E67F787BA620
:1003E3005C7879A655AF5C122065AD4C7F34121E44
:1003F300DFE4FF021836E53020E33678787624020E
:100403002088C2A853E67FE4FD7F05121EDFE4FFC8
:10041300121F647F03121EFA7F04121EFA5391FB0C
:1004230053917FC289788BE670077D027F62121E2B
:10043300DF228F238D24E523D3942440037F0122DD
:100443007878E6543060037F0322E523B425004027
:100453000302070A90045EF82828730204CD0207FA
:100463000A02055E02056D02057B02057B02057B20
:1004730002057B0205A002070A02070A02070A0215
:10048300070A02070A02070A02070A02070A020505
:10049300AD0205C30205C60205C90205CC0205CF9C
:1004A3000205DF0205F90205FC0205FF020602024E
:1004B300061402062502070A02062D020634020666
:1004C3003B0206950206E3020707E52430E7047DB5
:1004D3004280027D327F33121DC5AF241207147888
:1004E30077E6FDAF24120DB0E5245460C41354071E
:1004F300F52575F00BA424A7F582E43420F583E4F5
:1005030093FE786AE6C39E4002802B786BE6C39E17
:1005130040028022E52575F00BA424A7F582E4347C
:1005230020F583E493FE786CE6C39E40028007784F
:100533006DE6C39E4005E4F67F08227883E6FF124A
:100543001A24E52430E20302070A7F33121DEB8FDE
:1005530025E5254408FD7F33020702E524C4540F33
:10056300F5254418FD7F6D020702E524547864786D
:10057300600302070A7F02227866E6C4135403F578
:100583002575F00BA424A7F582E43420F583E493C6
:10059300FFE524C39F500302070A7F0222E524C319
:1005A3009404500302070A7F0222E524D3944040B7
:1005B300037F02227866E6FFAD24120DB002070A1C
:1005C3007F01227F01227F01227F01227866E630AC
:1005D300E707AD247F3A0207027F0122E524B4FF37
:1005E300037F02227866E6AD2430E7057F3B0207EE
:1005F300027F3A0207027F01227F01227F012278D4
:1006030066E6AD2430E7057F3C0207027F3B020725
:1006130002E524D3944040037F0222AD247F3E02AF
:100623000702AF24121A2402070AAD247F16020719
:1006330002AD247F15020702E524543FFD7F141207
:100643001DC57F06121DEB8F257F07121DEB8F251E
:100653008F26E52430E708432508432620800653E8
:1006630025F75326DFAD257F06121DC5AD267F076F
:10067300121DC57F07121DEB8F25E52430E60553B8
:1006830025EF8003432510AD257F07121DC5D2A892
:100693008075E52430E728541FF525FD7F1A121DC8
:1006A300C57F06121DEB8F25E5254404FD7F061249
:1006B3001DC57F07121DEB8F25E5254440801C7F58
:1006C30006121DEB8F25E52554FBFD7F06121DC584
:1006D3007F07121DEB8F25E52554BFFD7F07801F84
:1006E300E52454FCFD7F0F121DC5E4FD7F10121D90
:1006F300C5E5245403C4333354C04420FD7F121290
:100703001DC580037F012274662523F8A6247F007C
:1007130022EFC4135403F527EF5403F528E5277597
:10072300F00FA42409F582E43421F583E493FD7FDB
:100733001C121DC5E52775F00FA4240AF582E434C5
:1007430021F583E493FD7F20121DC5E52775F00F86
:10075300A4240BF582E43421F583E493FD7F211275
:100763001DC5E52775F00FA4240CF582E43421F5AB
:1007730083E493FD7F22121DC5E52775F00FA424A2
:100783000DF582E43421F583E493FD7F23121DC527
:10079300E52775F00FA4240EF582E43421F583E4F4
:1007A30093FD7F24121DC5E52775F00FA4240FF5D3
:1007B30082E43421F583E493FD7F25121DC5E527EB
:1007C30075F00FA42410F582E43421F583E493FD3E
:1007D3007F6E121DC5E52775F00FA42411F582E481
:1007E3003421F583E493FD7F6F121DC5E52775F072
:1007F3000FA42412F582E43421F583E493FD7F7082
:10080300121DC5E52775F00FA42413F582E43421E6
:10081300F583E493FD7F72121DC5E52775F00FA4E0
:100823002415F582E43421F583E493FD7F1D121D25
:10083300C5E52775F00FA42416F582E43421F5836A
:10084300E493FD7F2A121DC5E52775F00FA4241735
:10085300F582E43421F583E493FD7F1E121DC5E583
:100863002775F00BA424ADF582E43420F583E493DB
:1008730033333354F84402FD7F35121DC5E5277524
:10088300F00BA424A3F582E43420F583E493FD7FE5
:1008930075121DC5E52775F00BA424A4F582E43475
:1008A30020F583E493FD7F76121DC5E52775F00BD4
:1008B300A424A5F582E43420F583E493FD7F771225
:1008C3001DC5E52775F00BA424A6F582E43420F5B5
:1008D30083E493FD7F7A121DC5E528700FE5277524
:1008E300F00BA424A8F582E434208035E528B40174
:1008F3000FE52775F00BA424A9F582E434208021A9
:10090300E528B4020FE52775F00BA424AAF582E4C9
:100913003420800DE52775F00BA424ABF582E43475
:1009230020F583E49325E0FD7F34121DC522EF14E7
:10093300603C147003020A20147003020A841470CA
:1009430003020A8B24FE7003020AB3240660030227
:100953000AD6E5497009F5107FE37E230209FBE41B
:10096300F549751001F5117FF97E070209FBE510C2
:10097300703EE5497003020A24E4F549121FACE412
:10098300FCFDFEAB50AA4FA94EA84D12118AEF24CD
:10099300E0F53DEE3427F53CE43DF53BE43CF53A28
:1009A300AF3DAE3CAD3BFC121D4C787876128051C6
:1009B300E5497034121FACE4FCFDFEAB50AA4FA90D
:1009C3004EA84D12118AEF24E0F53DEE3427F53C95
:1009D300E43DF53BE43CF53AAF3DAE3CAD3BFC12A8
:1009E3001D4C78787612805EE511C39409501EE49D
:1009F300F54905117FF97E07FDFC121D4C787876C9
:100A0300117F01121E5A7F05121E5A8039E4F549DF
:100A13000556E556C394027F015057803BE5497064
:100A2300297F01121E5AE4FF121F7D7D047F0512E8
:100A33001F157F09121E5AAF65AE64AD63AC621217
:100A43001D4C7878761343E68022E4F5490556E594
:100A530056C394027F01501A121E5A7FFC7E037DF7
:100A6300007C00121D4C7878761043E6807F0502E7
:100A73001E5A121E5A787876157F08121EC302205A
:100A83009A78787616022088C2A853E67FE4FD7F21
:100A930005121F15E4FF121F7D7F03121F307F0411
:100AA300121F307F01121E5A12209D7F0102192E40
:100AB300C2A853E67FE4FD7F05121F15E4FF121F52
:100AC3007D7F03121F307F04121F305391FB53911C
:100AD3007FC28922300C17C20C1200063006FDC2F9
:100AE300067D447F2112043590005C7412F090005F
:100AF3005CE024ED603614606324FC7003020BCFCA
:100B0300147003020BDE147003020C0F240860033D
:100B1300020C531200063006FDC206D2A01213F0D7
:100B23003001FDC20190005C7413F0222010030217
:100B33000C53C2107E007F5F7C007D56121CBD905B
:100B43000056E064336003020C537B017A0079554D
:100B53007F1A1219AA90005C7414F0221200063056
:100B630006FDC2067D667F1F120435E4FD7F201259
:100B730004357DC47F211204357D787F021204354C
:100B8300900055E0FD7F1B1204359000567444F02D
:100B93007C007D567F011217B390005EE075F00A6A
:100BA30084AFF07E007C087DDC121123121E11122B
:100BB3000EE22006033005FA300602C206300505B0
:100BC300C20502000690005C7418F0221213F03084
:100BD30001FDC20190005C7419F022301072C21042
:100BE3007E007F5F7C007D56121CBD900056E06442
:100BF30045705D1200063006FDC206900058E0FD08
:100C03007F1712043590005C741AF0227D707F0206
:100C1300120435900055E0FD7F1B120435900056F9
:100C23007446F090005EE0900058F07C007D567FA3
:100C3300031217B3120EE23006FDC2067D447F2174
:100C43001204357DA07F0D12043590005C7422F0F0
:100C5300228D2F8B30EF14601A1460171460201448
:100C63007003020CFF24FE7003020D802406600350
:100C7300020DAFE53020E403020DAF75490122E513
:100C83002F20E203020DAF7868E630E22C7866E6A7
:100C93005403FFE54AC39F5020054A746A254AF866
:100CA300E6FD7F79121EDF7F09121E36AF65AE6443
:100CB300AD63AC62121D20802EE53020E32F7868EF
:100CC300E65484648070267D037F05121EDFE4FFF3
:100CD300121F647F05121E36AF5BAE5AAD59AC5876
:100CE300121D2078787614D2A843E6802253E67F3B
:100CF300122097E4FD7F05121EDF805C7866E630E4
:100D0300E7047F4A80027F49121EFA8F31E52F30B4
:100D1300E13CE531787D6670357F47121EFA8F31ED
:100D2300E53130E338E4FD7F05121EDF53E67F78BB
:100D330066E630E2097F4B121EFA7882A6077882B4
:100D4300E6FF7C007D00121CF0122097800AE52F3D
:100D530030E00A7F011200567F010218367F081225
:100D63001EFA8F31433102AD317F08121EDF53313A
:100D7300FDAD317F08121EDF7F05021E36C2A85368
:100D8300E67FE4FD7F05121EDFE4FF121F647F038D
:100D9300121EFA7F04121EFA5391FB53917FC289EC
:100DA300788BE670077D027F62121EDF228D27ABF0
:100DB30007EBC41354077528005403F52925E0FFF6
:100DC300E52833FE74012FF58274213EF583E49305
:100DD300F52C740193F52DE52975F00BA424A8F5E2
:100DE30082E43420F583EB54032582F582E43583D2
:100DF300F583E493F52AEB30E705752B048003753F
:100E03002B03EB30E202052BAE2CAF2DE52A240297
:100E1300FDE433FC1211E58F548E538D528C5190A7
:100E230020AC75F00BE5291211D9E52875F00BA458
:100E33002583F583E493FF7E00AC2CAD2D121123A3
:100E4300E48F488E47F546F545E52B2527FFE43328
:100E5300CF2405F529E43FF528AE2CAF2DFCAD29B1
:100E63001211E58F618E608D5F8C5EE52A252BFF65
:100E7300E433FE7C00EF2527FFEC3ECF240CF5295D
:100E8300E43FF528AE2CAF2DFCAD291211E58F659B
:100E93008E648D638C62EB30E203752710E52A259F
:100EA3002BFFE433FE7C00EF2527FFEC3ECF240726
:100EB300F529E43FF528AE2CAF2DFCAD291211E541
:100EC3008F5B8E5A8D598C58E55B2478F55BE55A18
:100ED3003429F55AE43559F559E43558F55822784B
:100EE30078E6644060037F0322C2A853E67F7868F4
:100EF300E630E20E786AE6FD7F79121DC5E4F54A15
:100F0300801C786EE6F523D394034003E4F5237441
:100F13006A2523F8E6FD7F79121DC585234A786685
:100F2300E61313135403F5237868E630E7034323EA
:100F330004E54BC3940F5004054B8003E4F54BE5E4
:100F43004BC454F042237866E6AD237F3A30E71D65
:100F5300121DC5787CE6FD7F3B121DC5787DE6FD3D
:100F63007F3C121DC57881E6FD7F3D8012121DC5B1
:100F7300787DE6FD7F3B121DC57881E6FD7F3C123F
:100F83001DC57868E630E341E620E23D7884E6FD5E
:100F93007F27121DC57F03121DEB7F04121DEBE497
:100FA300FD7F05121DC57F10121F4BE4F556F54951
:100FB300787876101220857FFC7E037D007C0012FA
:100FC3001B077F05121EA1802D7D047F05121DC501
:100FD300E4FF121F4B7F03121DEB7F04121DEB7FF7
:100FE30009121EA1AF65AE64AD63AC62121B077834
:100FF300787613122085D2A843E6807F0022C2A808
:1010030053E67FE4FF74662FF8E4F60FBF24F67807
:1010130066761C087650087638087604786B760175
:101023000876020876037873760278777640E408C8
:10103300F6787C76CD0876017882760178847678A6
:1010430018768A788876141876407F03121DEB7F12
:1010530004121DEBC289E4FD7F05121DC57D027FCD
:1010630006121DC5787876801220797D817F07125C
:101073001DC57FF67E0B7D007C00121B07D2A843A3
:10108300E6807878E6B440FAE4FD7F05121DC5E4F6
:10109300FD7F06121DC57866E630E7047D428002B7
:1010A3007D327F33121DC5E4FD7F32121DC57D2DB8
:1010B3007F36121DC57DD47F37121DC57866E6FFC6
:1010C3001207147D127F0B121DC57D147F0C121D98
:1010D300C57D0F7F0D121DC57D8D7F30121DC57D12
:1010E300637F71121DC5E4FD7F51121DC57D0B7F0A
:1010F30050121DC5788B7602E6FF12201AE4FD7F9D
:1011030007121DC5E47878F612207C7F0022BB010C
:101113000689828A83F0225002F722BBFE01F32262
:10112300EF8DF0A4A8F0CF8CF0A428CE8DF0A42EE0
:10113300FE22BC000BBE0029EF8DF084FFADF02230
:10114300E4CCF875F008EF2FFFEE33FEEC33FCEE42
:101153009DEC984005FCEE9DFE0FD5F0E9E4CEFD35
:1011630022EDF8F5F0EE8420D21CFEADF075F00808
:10117300EF2FFFED33FD4007985006D5F0F222C361
:1011830098FD0FD5F0EA22E88FF0A4CC8BF0A42CC5
:10119300FCE98EF0A42CFC8AF0EDA42CFCEA8EF082
:1011A300A4CDA8F08BF0A42DCC3825F0FDE98FF069
:1011B300A42CCD35F0FCEB8EF0A4FEA9F0EB8FF060
:1011C300A4CFC5F02ECD39FEE43CFCEAA42DCE35E8
:1011D300F0FDE43CFC22A42582F582E5F03583F59D
:1011E3008322EC8EF0A4CCC5F0CCCDF8EFA4CEC511
:1011F300F02DFDE43CFCE8A42EC8C5F03DFDE43C25
:10120300FCEFA4FFE5F028FEE43DFDE43CFC228F67
:10121300328C338D347878E620E5037F0322E53280
:10122300D3941040037F02227866E630E22DAD327C
:101233007F3E121DC5E4FFEFC39532400302130B3B
:10124300E5342FF582E43533F583E0FE74402FF562
:1012530082E43400F583EEF00F80DC7882E6D394E9
:1012630010403AE4FFEFC39532501BE5342FF5826B
:10127300E43533F583E0FE74402FF582E43400F562
:1012830083EEF00F80DFAF32EFC39410507A7440D7
:101293002FF582E43400F583E4F00F80EBE532C3ED
:1012A300788296503DE4FFEFC39532501BE5342F0F
:1012B300F582E43533F583E0FE74402FF582E434A0
:1012C30000F583EEF00F80DFAF327882E6FEEFC3E6
:1012D3009E503574402FF582E43400F583E4F00F1B
:1012E30080E8E4FF7882E6FEEFC39E501BE5342FCF
:1012F300F582E43533F583E0FE74402FF582E43460
:1013030000F583EEF00F80DC7F002290005CE02488
:10131300DD604A146069240260030213EF7D807F5D
:10132300231204357FDC7E08121E117B017A0079BB
:10133300517F241219AAE4FD7F231204357B017A1D
:101343000079527F221219AA900052E060EF121323
:10135300F03001FDC20190005C7423F022201003E1
:101363000213EFC2107E007F5F7C007D56121CBD0E
:10137300900056E06455707490005C7424F022125F
:1013830000063006FDC2067D707F02120435900010
:1013930055E0FD7F1B1204359000567456F0900003
:1013A30051E0900057F0900052E0900058F0900008
:1013B30053E0900059F07C007D567F041217B3125E
:1013C3000EE23006FDC206121C4E3004FDC2047D3F
:1013D300997F1F1204357D077F201204357DC47F5A
:1013E30021120435C2A090005C7430F0227878E6B4
:1013F300644060037F0322C2A853E67F7869E62036
:10140300E21E786EE6F523D394034003E4F52374D8
:101413006A2523F8E6FD7F79121DC585234A802CB2
:101423007869E620E30308801C7869E620E4047801
:101433006B80127869E620E504786C80087869E6A9
:1014430020E609786DE6FD7F79121DC5E4FD7F0571
:10145300121DC57F40121F4B7F03121DEB7F041229
:101463001DEB7F08121DEB8F23432302AD237F085F
:10147300121DC55323FDAD237F08121DC57F051221
:101483001EA1AF48AE47AD46AC45121B0778787630
:1014930020122082D2A843E6807F0022EF14604509
:1014A30014602514607114607C2404600302154BDE
:1014B3007869E630E203121BD4AF48AE47AD46ACC1
:1014C30045121D4C43E680227866E630E20E7F33F8
:1014D300121F30AD075305F77F3380067882E6FD90
:1014E3007F3E121F157F01121E5AE4FD7F05121F56
:1014F300157F40121F7D7869E630E203121BD4AFDB
:1015030048AE47AD46AC45121D4C43E6807F0512FD
:101513001E5A7878762022AD4C7F34121F157878C6
:101523007624022088C2A853E67FE4FD7F05121FBC
:1015330015E4FF121F7D7F03121F307F04121F303B
:101543005391FB53917FC2892290005CE024FE609B
:10155300660460030215F2D2AF1210013004FDC21B
:1015630003C2047DACE4FF1204357D607F011204E5
:1015730035E4FD7F03120435E4FD7F041204357D59
:10158300707F021204357D807F221204357D917FA6
:101593000D1204357DCD7F161204357DFE7F1012AA
:1015A3000435E4900050F0A374FFF0E4A3F0A3F03B
:1015B30090005C7402F02290005BE004F0700690EF
:1015C300005AE004F02087273087FD90005D74CD3A
:1015D300F0121FC290005EEFF0FD7F171204351268
:1015E3001ABE3006FDC203C20690005C7412F022DC
:1015F30075D900787FE4F6D8FD9000007F007E1057
:10160300E4F0A3DFFCDEFA75818B02164B02205D4A
:10161300E493A3F8E493A34003F68001F208DFF414
:101623008029E493A3F85407240CC8C333C4540F8C
:101633004420C8834004F456800146F6DFE4800B5F
:101643000102040810204080901E7EE47E01936016
:10165300BCA3FF543F30E509541FFEE493A360018C
:101663000ECF54C025E060A840B8E493A3FAE493F6
:10167300A3F8E493A3C8C582C8CAC583CAF0A3C8A4
:10168300C582C8CAC583CADFE9DEE780BEC0E0C041
:10169300F0C083C082C0D075D000C000C001C002BA
:1016A300C003C004C005C006C007C2897F03121E61
:1016B300FA8F0E7F04121EFA8F0FE50E7005E50FE9
:1016C30030E0377878E6540FF52EE6B48007AF0F95
:1016D300121B9180257878E630E40BAB0FAD0EAF8B
:1016E3002E120C5480147878E630E50BAB0FAD0E58
:1016F300AF2E1200768003122029E50F30E3051286
:10170300208BD2A8E50F30E20512208ED2A8D00795
:10171300D006D005D004D003D002D001D000D0D061
:10172300D082D083D0F0D0E0327873E630E62178EF
:1017330066E630E7047F4980027F48121EFA8F3243
:10174300E532787556FF7974E7566F60037F01229F
:101753007873E630E5577866E630E7047F4A80021F
:101763007F49121EFA8F33E533787D667005435542
:1017730080FF227873E630E30BE533B4FF0643556D
:10178300207F00227873E630E420E630E00CE53376
:101793007876667015435540FF22797DE778765653
:1017A300FFE53356B507037F00227F01227F002226
:1017B3008F238C248D257878E6543060037F0322B1
:1017C300E523D3944040037F02227F08121DEB8F51
:1017D30026432601AD267F08121DC55326FEAD26DE
:1017E3007F08121DC57866E630E213AD237F3E12F3
:1017F3001DC57882A623AD25AC24AF23802FE52316
:10180300C3788296501FAD25AC24AF23121C1585D7
:101813002326E526C37882965016E4FD7F7F121DAA
:10182300C5052680ED7882E6FFAD25AC24121C1594
:101833007F00228F32122029E53278676006E6C4E2
:1018430013138002E6C45403F533E533700BFF1220
:101853001E36E47878F602207CE533640270437F19
:1018630008121EFA8F34433402AD347F08121EDF90
:101873005334FDAD347F08121EDF7F40121F64789E
:1018830069E630E211121C86AF48AE47AD46AC455F
:10189300121D2043E6807F05121E3678787620D20B
:1018A300A8227F01121E367878764012207F22C04C
:1018B300E0C0F0C083C082C0D075D000C000C001BA
:1018C300C002C003C004C005C006C007E50D450C37
:1018D300703353E67F5391FB53917F7878E6540F2F
:1018E300F539E6B4800512204780257878E630E4A0
:1018F30007AF3912093180187878E630E512AF392D
:1019030012149F800B53917FE50D150D7002150C7A
:10191300D007D006D005D004D003D002D001D00028
:10192300D0D0D082D083D0F0D0E0328F3E12203896
:10193300E53E78676006E6C413138002E6C45403E9
:10194300F53FE53F700BFF121E5AE47878F602204C
:101953007CE53F640270437F08121F308F40434091
:1019630002AD407F08121F155340FDAD407F0812A2
:101973001F157F40121F7D7869E630E211121BD4D8
:10198300AF48AE47AD46AC45121D4C43E6807F05DC
:10199300121E5A78787620D2A8227F01121E5A7816
:1019A30078764012207F228F238B248A258926E58F
:1019B30023D3942440037F0122E523641F600BE5B6
:1019C3002364206005E523B421037F0122E523B4CA
:1019D300150F7878E630E5097F26121DEB787BA694
:1019E30007E523B424097F11121DEB788AA607E5C6
:1019F300236422701A7888E630E710E65480F67F75
:101A03001B121DEB7888E64FF68004E47888F674A1
:101A1300662523F8E6AB24AA25A9261211117F0017
:101A2300228F27E52730E708E47550CCF54F801E59
:101A33007866E6C413540325E02401F582E43421D7
:101A4300F583E493FE740193FFE48F508E4FF54EBC
:101A5300F54DAB50AA4FA94EA84DE527547FFFE49F
:101A6300FCFDFE12118A8F508E4F8D4E8C4D2278C5
:101A730073E630E1037F00227866E630E71578737A
:101A8300E630E70F7F48121EFA787CE66F60047F2A
:101A930004800812172CEF60087F021200567F01A2
:101AA300227873E630E2117F4B121EFA7877E6FE56
:101AB300EFD39E40037F01227F00227878E67041B6
:101AC300C2A853E67FFD7F05121DC57F02121F4B7F
:101AD3007F03121DEB7F04121DEBC2897F01121ECF
:101AE300A17FF67E0B7D007C00121B077878768041
:101AF300122079D2A843E6807878E6B440FA7F00D2
:101B0300227F03228F278E268D258C24A2A8E433DF
:101B1300FBC2A853E67F5391FBAE26AD25AC2485CB
:101B2300272B8E2A8D298C2885280C85290DC3E423
:101B3300952BF52BE4952AF52A852B94852A955325
:101B4300917F439104EB42A82275A91443D44043E7
:101B5300A41043E10143E24043A50143A50443D557
:101B63000843A50843D54043A54043D60143A601F6
:101B730043D40243A40243D48075A70F75A41275FE
:101B8300A54D75A601E4F5A743E340C281228F2F3B
:101B9300E52F30E10A1220297878764002207FE58C
:101BA3002F30E022E4FD7F05121EDF7F02121F6447
:101BB3007F01121E367FF67E0B7D007C00121D20F6
:101BC300D2A843E680221220297878768F122088C3
:101BD30022854A417F08AE41EFA806088002C3333D
:101BE300D8FCFF0541534103EF25E0FFBF80027F8F
:101BF300087869E65F6F60EB7F01121E5A746A25ED
:101C030041F8E6FD7F79121F157F05121E5A8541A3
:101C13004A22E5A85403FE53A8FCC293C2B77586B3
:101C2300FFAB071FEB601430B1FD0DEDAA0470018B
:101C33000C14F5828A83E0F58680E630B1FDE584F5
:101C430020E7FBC2B7D293EE42A8227878E664403D
:101C5300702EC2A853E67F788BE670077D247F62DF
:101C6300121DC5E4FD7F05121DC5E4FF121F4BE4E1
:101C7300FF121EA1E47878F612207CD2A87F0022FE
:101C83007F0322854A357F08AE35EFA80608800218
:101C9300C333D8FCFF0535533503EF25E0FFBF8081
:101CA300027F087869E65F6F60EB746A2535F8E6B2
:101CB300FD7F79121EDF85354A228F828E83E4FFF2
:101CC3007882E6F07882E6FEEFC39E501D74002F03
:101CD300F582E43400F583E0FE0DEDAA0470010CF7
:101CE30014F5828A83EEF00F80DA7F0022C293C25A
:101CF300B775867F30B7FDE586AE071FEE6019C264
:101D0300B7E4F58630B7FD0DEDAA0470010C14F5A8
:101D1300828A83E586F080E1C2B7D2932253E67FBD
:101D23005391FB8F388E378D368C3585350C853640
:101D33000DC3E49538F538E49537F5378538948540
:101D4300379553917F4391042253E67F5391FB8F41
:101D5300448E438D428C4185410C85420DC3E495ED
:101D630044F544E49543F543854494854395539161
:101D73007F4391042290005CE024D0701E300C1B42
:101D8300C20C121ABE3006FDC203C2067D447F2177
:101D9300120435D2A090005C7422F02290005CE023
:101DA30054F024F0601224F0601124F06010243009
:101DB300700F121FD602154C020AD702130E121D02
:101DC3007822E5A85403FE53A8FCC293C2B7EF449C
:101DD30080F58630B1FD8D8630B1FDE58420E7FBCB
:101DE300C2B7D293EE42A822E5A85403FE53A8FC3F
:101DF300C293C2B78F8630B1FDE4F58630B1FDE5FD
:101E03008420E7FBAF86C2B7D293EE42A822C37405
:101E1300FF9FF52474FF9EF523E4F5C8538ECF8509
:101E230023CD8524CCC2AD43C804E5C830E7FB53BA
:101E3300C8FB22AD077887E630E705430520D2A823
:101E43007887E620E6034305107888E630E7034306
:101E530005407F07021EDFAD077887E630E70543BD
:101E63000520D2A87887E620E6034305107888E6A4
:101E730030E7034305407F07021F15C103C104C1B7
:101E830006C101C102C108C10CC100C10BC10AC115
:101E930009C110C10DC10EC105C10FC10700AD07B6
:101EA3007887E630E7034305207887E620E6034397
:101EB30005107888E630E7034305407F07021DC518
:101EC30053070F7867E65FB50711746F254AF8E685
:101ED300C394FF5006746F254AF80622C293C2B713
:101EE300EF4480F58630B1FD8D8630B1FDE5842069
:101EF300E7FBC2B7D29322C293C2B78F8630B1FD3C
:101F0300E4F58630B1FDE58420E7FBAF86C2B7D2A6
:101F13009322C293C2B7EF4480F58630B1FD8D861C
:101F230030B1FDE58420E7FBC2B7D29322C293C24E
:101F3300B78F8630B1FDE4F58630B1FDE58420E747
:101F4300FBAF86C2B7D29322AD077887E630E703AB
:101F53004305087888E630E7034305047F06021D3E
:101F6300C5AD077887E630E7034305087888E63090
:101F7300E7034305047F06021EDFAD077887E630DB
:101F8300E7034305087888E630E7034305047F0643
:101F9300021F15538E3F5391FE7593007592628510
:101FA300939585929475910422E55775F0F5A4F500
:101FB3005724FBF557C4540FFF70037F012222906F
:101FC300005AE0FEA3E0FF7C007DF9121135ED24F9
:101FD30005FF22121B4C121FE812200B121F961230
:101FE300206D02207443B280E4F5A975B64075E50F
:101FF30001E5A930E7FB22D207900060E55CF07CA5
:10200300007D607F01021212758440E4F5B075858E
:102013000143B001D293227D607F69121DC57D6D9E
:102023007F09121DC52253E67FE4FD7F05121EDFE3
:10203300E4FF021F6453E67FE4FD7F05121F15E4EE
:10204300FF021F7DC2A853E67F7878768F0220882F
:1020530053D9BF90005C7401F022122053121D9FCC
:1020630080FB900053EFF0D2102275E4065388FCF6
:1020730022C2A0C29622D20322D20422D20622D2A4
:102083000122D20222D20822D20C22D20022D20B67
:1020930022D20922D20E22D20522D20F22D20A2222
:1020A300752580303C040A0D100305752580303CEE
:1020B300040A0D1003057525804E25040E1318051B
:1020C30005752580641D041219200705000102030C
:1020D3000405060708090A0B0C0D0E0F1011121345
:1020E3001415161718191A1B1C1D1E1F2021222335
:1020F3002425262728292A2B2C2D2E2F30311A95DB
:1021030006A50146007F1C41602752000413A92441
:102113003D3D401A0A1DD0009D4900294EA5243D8E
:102123003D401E0A055001999A03350CCD04282819
:1021330040280A835E015D8602BB20C504666640B3
:02214300500A40
:00000001FF
